{
  "address": "0x5FbDB2315678afecb367f032d93F642f64180aa3",
  "abi": [
    {
      "anonymous": false,
      "inputs": [
        {
          "indexed": true,
          "internalType": "address",
          "name": "owner",
          "type": "address"
        },
        {
          "indexed": true,
          "internalType": "address",
          "name": "approved",
          "type": "address"
        },
        {
          "indexed": true,
          "internalType": "uint256",
          "name": "tokenId",
          "type": "uint256"
        }
      ],
      "name": "Approval",
      "type": "event"
    },
    {
      "anonymous": false,
      "inputs": [
        {
          "indexed": true,
          "internalType": "address",
          "name": "owner",
          "type": "address"
        },
        {
          "indexed": true,
          "internalType": "address",
          "name": "operator",
          "type": "address"
        },
        {
          "indexed": false,
          "internalType": "bool",
          "name": "approved",
          "type": "bool"
        }
      ],
      "name": "ApprovalForAll",
      "type": "event"
    },
    {
      "anonymous": false,
      "inputs": [
        {
          "indexed": true,
          "internalType": "address",
          "name": "previousOwner",
          "type": "address"
        },
        {
          "indexed": true,
          "internalType": "address",
          "name": "newOwner",
          "type": "address"
        }
      ],
      "name": "OwnershipTransferred",
      "type": "event"
    },
    {
      "anonymous": false,
      "inputs": [
        {
          "indexed": true,
          "internalType": "address",
          "name": "from",
          "type": "address"
        },
        {
          "indexed": true,
          "internalType": "address",
          "name": "to",
          "type": "address"
        },
        {
          "indexed": true,
          "internalType": "uint256",
          "name": "tokenId",
          "type": "uint256"
        }
      ],
      "name": "Transfer",
      "type": "event"
    },
    {
      "inputs": [
        {
          "internalType": "address",
          "name": "to",
          "type": "address"
        },
        {
          "internalType": "uint256",
          "name": "tokenId",
          "type": "uint256"
        }
      ],
      "name": "approve",
      "outputs": [],
      "stateMutability": "nonpayable",
      "type": "function"
    },
    {
      "inputs": [
        {
          "internalType": "address",
          "name": "owner",
          "type": "address"
        }
      ],
      "name": "balanceOf",
      "outputs": [
        {
          "internalType": "uint256",
          "name": "",
          "type": "uint256"
        }
      ],
      "stateMutability": "view",
      "type": "function"
    },
    {
      "inputs": [
        {
          "internalType": "uint256",
          "name": "tokenId",
          "type": "uint256"
        }
      ],
      "name": "getApproved",
      "outputs": [
        {
          "internalType": "address",
          "name": "",
          "type": "address"
        }
      ],
      "stateMutability": "view",
      "type": "function"
    },
    {
      "inputs": [
        {
          "internalType": "address",
          "name": "_owner",
          "type": "address"
        },
        {
          "internalType": "string",
          "name": "_name",
          "type": "string"
        },
        {
          "internalType": "string",
          "name": "_symbol",
          "type": "string"
        }
      ],
      "name": "initialize",
      "outputs": [],
      "stateMutability": "nonpayable",
      "type": "function"
    },
    {
      "inputs": [
        {
          "internalType": "address",
          "name": "owner",
          "type": "address"
        },
        {
          "internalType": "address",
          "name": "operator",
          "type": "address"
        }
      ],
      "name": "isApprovedForAll",
      "outputs": [
        {
          "internalType": "bool",
          "name": "",
          "type": "bool"
        }
      ],
      "stateMutability": "view",
      "type": "function"
    },
    {
      "inputs": [
        {
          "internalType": "address",
          "name": "to",
          "type": "address"
        }
      ],
      "name": "mintSubtape",
      "outputs": [
        {
          "internalType": "uint256",
          "name": "",
          "type": "uint256"
        }
      ],
      "stateMutability": "nonpayable",
      "type": "function"
    },
    {
      "inputs": [
        {
          "internalType": "address[]",
          "name": "recipients",
          "type": "address[]"
        }
      ],
      "name": "mintSubtapes",
      "outputs": [
        {
          "internalType": "uint256",
          "name": "",
          "type": "uint256"
        }
      ],
      "stateMutability": "nonpayable",
      "type": "function"
    },
    {
      "inputs": [],
      "name": "name",
      "outputs": [
        {
          "internalType": "string",
          "name": "",
          "type": "string"
        }
      ],
      "stateMutability": "view",
      "type": "function"
    },
    {
      "inputs": [],
      "name": "owner",
      "outputs": [
        {
          "internalType": "address",
          "name": "",
          "type": "address"
        }
      ],
      "stateMutability": "view",
      "type": "function"
    },
    {
      "inputs": [
        {
          "internalType": "uint256",
          "name": "tokenId",
          "type": "uint256"
        }
      ],
      "name": "ownerOf",
      "outputs": [
        {
          "internalType": "address",
          "name": "",
          "type": "address"
        }
      ],
      "stateMutability": "view",
      "type": "function"
    },
    {
      "inputs": [],
      "name": "renounceOwnership",
      "outputs": [],
      "stateMutability": "nonpayable",
      "type": "function"
    },
    {
      "inputs": [
        {
          "internalType": "uint256",
          "name": "",
          "type": "uint256"
        },
        {
          "internalType": "uint256",
          "name": "_salePrice",
          "type": "uint256"
        }
      ],
      "name": "royaltyInfo",
      "outputs": [
        {
          "internalType": "address",
          "name": "receiver",
          "type": "address"
        },
        {
          "internalType": "uint256",
          "name": "royaltyAmount",
          "type": "uint256"
        }
      ],
      "stateMutability": "view",
      "type": "function"
    },
    {
      "inputs": [
        {
          "internalType": "address",
          "name": "from",
          "type": "address"
        },
        {
          "internalType": "address",
          "name": "to",
          "type": "address"
        },
        {
          "internalType": "uint256",
          "name": "tokenId",
          "type": "uint256"
        }
      ],
      "name": "safeTransferFrom",
      "outputs": [],
      "stateMutability": "nonpayable",
      "type": "function"
    },
    {
      "inputs": [
        {
          "internalType": "address",
          "name": "from",
          "type": "address"
        },
        {
          "internalType": "address",
          "name": "to",
          "type": "address"
        },
        {
          "internalType": "uint256",
          "name": "tokenId",
          "type": "uint256"
        },
        {
          "internalType": "bytes",
          "name": "_data",
          "type": "bytes"
        }
      ],
      "name": "safeTransferFrom",
      "outputs": [],
      "stateMutability": "nonpayable",
      "type": "function"
    },
    {
      "inputs": [
        {
          "internalType": "address",
          "name": "operator",
          "type": "address"
        },
        {
          "internalType": "bool",
          "name": "approved",
          "type": "bool"
        }
      ],
      "name": "setApprovalForAll",
      "outputs": [],
      "stateMutability": "nonpayable",
      "type": "function"
    },
    {
      "inputs": [
        {
          "internalType": "bytes4",
          "name": "interfaceId",
          "type": "bytes4"
        }
      ],
      "name": "supportsInterface",
      "outputs": [
        {
          "internalType": "bool",
          "name": "",
          "type": "bool"
        }
      ],
      "stateMutability": "view",
      "type": "function"
    },
    {
      "inputs": [],
      "name": "symbol",
      "outputs": [
        {
          "internalType": "string",
          "name": "",
          "type": "string"
        }
      ],
      "stateMutability": "view",
      "type": "function"
    },
    {
      "inputs": [
        {
          "internalType": "uint256",
          "name": "tokenId",
          "type": "uint256"
        }
      ],
      "name": "tokenURI",
      "outputs": [
        {
          "internalType": "string",
          "name": "",
          "type": "string"
        }
      ],
      "stateMutability": "view",
      "type": "function"
    },
    {
      "inputs": [],
      "name": "totalSupply",
      "outputs": [
        {
          "internalType": "uint256",
          "name": "",
          "type": "uint256"
        }
      ],
      "stateMutability": "view",
      "type": "function"
    },
    {
      "inputs": [
        {
          "internalType": "address",
          "name": "from",
          "type": "address"
        },
        {
          "internalType": "address",
          "name": "to",
          "type": "address"
        },
        {
          "internalType": "uint256",
          "name": "tokenId",
          "type": "uint256"
        }
      ],
      "name": "transferFrom",
      "outputs": [],
      "stateMutability": "nonpayable",
      "type": "function"
    },
    {
      "inputs": [
        {
          "internalType": "address",
          "name": "newOwner",
          "type": "address"
        }
      ],
      "name": "transferOwnership",
      "outputs": [],
      "stateMutability": "nonpayable",
      "type": "function"
    }
  ],
  "transactionHash": "0xc4479bbc9ab890cfba76ed364943d3969ca425d607c633b7ed191025788632a5",
  "args": [],
  "solcInputHash": "2e1149f13f1a9cd40dea8a189b500091",
  "bytecode": "0x608060405234801561001057600080fd5b50613994806100206000396000f3fe608060405234801561001057600080fd5b50600436106101375760003560e01c8063715018a6116100b8578063a89c81ff1161007c578063a89c81ff1461033b578063b52014c61461036b578063b88d4fde1461039b578063c87b56dd146103b7578063e985e9c5146103e7578063f2fde38b1461041757610137565b8063715018a6146102bd5780638da5cb5b146102c757806390657147146102e557806395d89b4114610301578063a22cb4651461031f57610137565b806323b872dd116100ff57806323b872dd146101f45780632a55205a1461021057806342842e0e146102415780636352211e1461025d57806370a082311461028d57610137565b806301ffc9a71461013c57806306fdde031461016c578063081812fc1461018a578063095ea7b3146101ba57806318160ddd146101d6575b600080fd5b61015660048036038101906101519190612892565b610433565b6040516101639190612d30565b60405180910390f35b6101746104ad565b6040516101819190612d4b565b60405180910390f35b6101a4600480360381019061019f91906128ec565b61053f565b6040516101b19190612ca0565b60405180910390f35b6101d460048036038101906101cf9190612809565b6105c4565b005b6101de6106dc565b6040516101eb9190612f8d565b60405180910390f35b61020e60048036038101906102099190612668565b6106ed565b005b61022a60048036038101906102259190612919565b61074d565b604051610238929190612d07565b60405180910390f35b61025b60048036038101906102569190612668565b6107cc565b005b610277600480360381019061027291906128ec565b6107ec565b6040516102849190612ca0565b60405180910390f35b6102a760048036038101906102a291906125fb565b61089e565b6040516102b49190612f8d565b60405180910390f35b6102c5610956565b005b6102cf6109de565b6040516102dc9190612ca0565b60405180910390f35b6102ff60048036038101906102fa919061277e565b610a08565b005b610309610aff565b6040516103169190612d4b565b60405180910390f35b6103396004803603810190610334919061273e565b610b91565b005b61035560048036038101906103509190612849565b610d12565b6040516103629190612f8d565b60405180910390f35b610385600480360381019061038091906125fb565b610da0565b6040516103929190612f8d565b60405180910390f35b6103b560048036038101906103b091906126bb565b610ecc565b005b6103d160048036038101906103cc91906128ec565b610f2e565b6040516103de9190612d4b565b60405180910390f35b61040160048036038101906103fc9190612628565b610fd5565b60405161040e9190612d30565b60405180910390f35b610431600480360381019061042c91906125fb565b611069565b005b6000817bffffffffffffffffffffffffffffffffffffffffffffffffffffffff19167f2a55205a000000000000000000000000000000000000000000000000000000007bffffffffffffffffffffffffffffffffffffffffffffffffffffffff191614806104a657506104a582611161565b5b9050919050565b6060606580546104bc90613269565b80601f01602080910402602001604051908101604052809291908181526020018280546104e890613269565b80156105355780601f1061050a57610100808354040283529160200191610535565b820191906000526020600020905b81548152906001019060200180831161051857829003601f168201915b5050505050905090565b600061054a82611243565b610589576040517f08c379a000000000000000000000000000000000000000000000000000000000815260040161058090612ecd565b60405180910390fd5b6069600083815260200190815260200160002060009054906101000a900473ffffffffffffffffffffffffffffffffffffffff169050919050565b60006105cf826107ec565b90508073ffffffffffffffffffffffffffffffffffffffff168373ffffffffffffffffffffffffffffffffffffffff161415610640576040517f08c379a000000000000000000000000000000000000000000000000000000000815260040161063790612f4d565b60405180910390fd5b8073ffffffffffffffffffffffffffffffffffffffff1661065f6112af565b73ffffffffffffffffffffffffffffffffffffffff16148061068e575061068d816106886112af565b610fd5565b5b6106cd576040517f08c379a00000000000000000000000000000000000000000000000000000000081526004016106c490612e2d565b60405180910390fd5b6106d783836112b7565b505050565b60006106e860c9611370565b905090565b6106fe6106f86112af565b8261137e565b61073d576040517f08c379a000000000000000000000000000000000000000000000000000000000815260040161073490612f6d565b60405180910390fd5b61074883838361145c565b505050565b600080600073ffffffffffffffffffffffffffffffffffffffff166107706109de565b73ffffffffffffffffffffffffffffffffffffffff16141561079f576107946109de565b6000915091506107c5565b6107a76109de565b60646005856107b69190613125565b6107c091906130f4565b915091505b9250929050565b6107e783838360405180602001604052806000815250610ecc565b505050565b6000806067600084815260200190815260200160002060009054906101000a900473ffffffffffffffffffffffffffffffffffffffff169050600073ffffffffffffffffffffffffffffffffffffffff168173ffffffffffffffffffffffffffffffffffffffff161415610895576040517f08c379a000000000000000000000000000000000000000000000000000000000815260040161088c90612e6d565b60405180910390fd5b80915050919050565b60008073ffffffffffffffffffffffffffffffffffffffff168273ffffffffffffffffffffffffffffffffffffffff16141561090f576040517f08c379a000000000000000000000000000000000000000000000000000000000815260040161090690612e4d565b60405180910390fd5b606860008373ffffffffffffffffffffffffffffffffffffffff1673ffffffffffffffffffffffffffffffffffffffff168152602001908152602001600020549050919050565b61095e6112af565b73ffffffffffffffffffffffffffffffffffffffff1661097c6109de565b73ffffffffffffffffffffffffffffffffffffffff16146109d2576040517f08c379a00000000000000000000000000000000000000000000000000000000081526004016109c990612eed565b60405180910390fd5b6109dc60006116b8565b565b6000609760009054906101000a900473ffffffffffffffffffffffffffffffffffffffff16905090565b600060019054906101000a900460ff1680610a2e575060008054906101000a900460ff16155b610a6d576040517f08c379a0000000000000000000000000000000000000000000000000000000008152600401610a6490612e8d565b60405180910390fd5b60008060019054906101000a900460ff161590508015610abd576001600060016101000a81548160ff02191690831515021790555060016000806101000a81548160ff0219169083151502179055505b610ac7838361177e565b610acf611873565b610ad884611069565b8015610af95760008060016101000a81548160ff0219169083151502179055505b50505050565b606060668054610b0e90613269565b80601f0160208091040260200160405190810160405280929190818152602001828054610b3a90613269565b8015610b875780601f10610b5c57610100808354040283529160200191610b87565b820191906000526020600020905b815481529060010190602001808311610b6a57829003601f168201915b5050505050905090565b610b996112af565b73ffffffffffffffffffffffffffffffffffffffff168273ffffffffffffffffffffffffffffffffffffffff161415610c07576040517f08c379a0000000000000000000000000000000000000000000000000000000008152600401610bfe90612ded565b60405180910390fd5b80606a6000610c146112af565b73ffffffffffffffffffffffffffffffffffffffff1673ffffffffffffffffffffffffffffffffffffffff16815260200190815260200160002060008473ffffffffffffffffffffffffffffffffffffffff1673ffffffffffffffffffffffffffffffffffffffff16815260200190815260200160002060006101000a81548160ff0219169083151502179055508173ffffffffffffffffffffffffffffffffffffffff16610cc16112af565b73ffffffffffffffffffffffffffffffffffffffff167f17307eab39ab6107e8899845ad3d59bd9653f200f220920489ca2b5937696c3183604051610d069190612d30565b60405180910390a35050565b6000610d1c6112af565b73ffffffffffffffffffffffffffffffffffffffff16610d3a6109de565b73ffffffffffffffffffffffffffffffffffffffff1614610d90576040517f08c379a0000000000000000000000000000000000000000000000000000000008152600401610d8790612eed565b60405180910390fd5b610d998261195c565b9050919050565b6000610daa6112af565b73ffffffffffffffffffffffffffffffffffffffff16610dc86109de565b73ffffffffffffffffffffffffffffffffffffffff1614610e1e576040517f08c379a0000000000000000000000000000000000000000000000000000000008152600401610e1590612eed565b60405180910390fd5b6000600167ffffffffffffffff811115610e3b57610e3a613402565b5b604051908082528060200260200182016040528015610e695781602001602082028036833780820191505090505b5090508281600081518110610e8157610e806133d3565b5b602002602001019073ffffffffffffffffffffffffffffffffffffffff16908173ffffffffffffffffffffffffffffffffffffffff1681525050610ec48161195c565b915050919050565b610edd610ed76112af565b8361137e565b610f1c576040517f08c379a0000000000000000000000000000000000000000000000000000000008152600401610f1390612f6d565b60405180910390fd5b610f28848484846119fc565b50505050565b6060610f3982611243565b610f78576040517f08c379a0000000000000000000000000000000000000000000000000000000008152600401610f6f90612f2d565b60405180910390fd5b6000610f82611a58565b90506000815111610fa25760405180602001604052806000815250610fcd565b80610fac84611a6f565b604051602001610fbd929190612c7c565b6040516020818303038152906040525b915050919050565b6000606a60008473ffffffffffffffffffffffffffffffffffffffff1673ffffffffffffffffffffffffffffffffffffffff16815260200190815260200160002060008373ffffffffffffffffffffffffffffffffffffffff1673ffffffffffffffffffffffffffffffffffffffff16815260200190815260200160002060009054906101000a900460ff16905092915050565b6110716112af565b73ffffffffffffffffffffffffffffffffffffffff1661108f6109de565b73ffffffffffffffffffffffffffffffffffffffff16146110e5576040517f08c379a00000000000000000000000000000000000000000000000000000000081526004016110dc90612eed565b60405180910390fd5b600073ffffffffffffffffffffffffffffffffffffffff168173ffffffffffffffffffffffffffffffffffffffff161415611155576040517f08c379a000000000000000000000000000000000000000000000000000000000815260040161114c90612d8d565b60405180910390fd5b61115e816116b8565b50565b60007f80ac58cd000000000000000000000000000000000000000000000000000000007bffffffffffffffffffffffffffffffffffffffffffffffffffffffff1916827bffffffffffffffffffffffffffffffffffffffffffffffffffffffff1916148061122c57507f5b5e139f000000000000000000000000000000000000000000000000000000007bffffffffffffffffffffffffffffffffffffffffffffffffffffffff1916827bffffffffffffffffffffffffffffffffffffffffffffffffffffffff1916145b8061123c575061123b82611bd0565b5b9050919050565b60008073ffffffffffffffffffffffffffffffffffffffff166067600084815260200190815260200160002060009054906101000a900473ffffffffffffffffffffffffffffffffffffffff1673ffffffffffffffffffffffffffffffffffffffff1614159050919050565b600033905090565b816069600083815260200190815260200160002060006101000a81548173ffffffffffffffffffffffffffffffffffffffff021916908373ffffffffffffffffffffffffffffffffffffffff160217905550808273ffffffffffffffffffffffffffffffffffffffff1661132a836107ec565b73ffffffffffffffffffffffffffffffffffffffff167f8c5be1e5ebec7d5bd14f71427d1e84f3dd0314c0f7b2291e5b200ac8c7c3b92560405160405180910390a45050565b600081600001549050919050565b600061138982611243565b6113c8576040517f08c379a00000000000000000000000000000000000000000000000000000000081526004016113bf90612e0d565b60405180910390fd5b60006113d3836107ec565b90508073ffffffffffffffffffffffffffffffffffffffff168473ffffffffffffffffffffffffffffffffffffffff16148061144257508373ffffffffffffffffffffffffffffffffffffffff1661142a8461053f565b73ffffffffffffffffffffffffffffffffffffffff16145b8061145357506114528185610fd5565b5b91505092915050565b8273ffffffffffffffffffffffffffffffffffffffff1661147c826107ec565b73ffffffffffffffffffffffffffffffffffffffff16146114d2576040517f08c379a00000000000000000000000000000000000000000000000000000000081526004016114c990612f0d565b60405180910390fd5b600073ffffffffffffffffffffffffffffffffffffffff168273ffffffffffffffffffffffffffffffffffffffff161415611542576040517f08c379a000000000000000000000000000000000000000000000000000000000815260040161153990612dcd565b60405180910390fd5b61154d838383611c3a565b6115586000826112b7565b6001606860008573ffffffffffffffffffffffffffffffffffffffff1673ffffffffffffffffffffffffffffffffffffffff16815260200190815260200160002060008282546115a8919061317f565b925050819055506001606860008473ffffffffffffffffffffffffffffffffffffffff1673ffffffffffffffffffffffffffffffffffffffff16815260200190815260200160002060008282546115ff919061309e565b92505081905550816067600083815260200190815260200160002060006101000a81548173ffffffffffffffffffffffffffffffffffffffff021916908373ffffffffffffffffffffffffffffffffffffffff160217905550808273ffffffffffffffffffffffffffffffffffffffff168473ffffffffffffffffffffffffffffffffffffffff167fddf252ad1be2c89b69c2b068fc378daa952ba7f163c4a11628f55a4df523b3ef60405160405180910390a4505050565b6000609760009054906101000a900473ffffffffffffffffffffffffffffffffffffffff16905081609760006101000a81548173ffffffffffffffffffffffffffffffffffffffff021916908373ffffffffffffffffffffffffffffffffffffffff1602179055508173ffffffffffffffffffffffffffffffffffffffff168173ffffffffffffffffffffffffffffffffffffffff167f8be0079c531659141344cd1fd0a4f28419497f9722a3daafe3b4186f6b6457e060405160405180910390a35050565b600060019054906101000a900460ff16806117a4575060008054906101000a900460ff16155b6117e3576040517f08c379a00000000000000000000000000000000000000000000000000000000081526004016117da90612e8d565b60405180910390fd5b60008060019054906101000a900460ff161590508015611833576001600060016101000a81548160ff02191690831515021790555060016000806101000a81548160ff0219169083151502179055505b61183b611c3f565b611843611d18565b61184d8383611df1565b801561186e5760008060016101000a81548160ff0219169083151502179055505b505050565b600060019054906101000a900460ff1680611899575060008054906101000a900460ff16155b6118d8576040517f08c379a00000000000000000000000000000000000000000000000000000000081526004016118cf90612e8d565b60405180910390fd5b60008060019054906101000a900460ff161590508015611928576001600060016101000a81548160ff02191690831515021790555060016000806101000a81548160ff0219169083151502179055505b611930611c3f565b611938611efa565b80156119595760008060016101000a81548160ff0219169083151502179055505b50565b60008061196960c9611370565b90506000600184518361197c919061309e565b611986919061317f565b90505b8061199460c9611370565b116119e9576119da84836119a860c9611370565b6119b2919061317f565b815181106119c3576119c26133d3565b5b60200260200101516119d560c9611370565b611fe3565b6119e460c96121b1565b611989565b6119f360c9611370565b92505050919050565b611a0784848461145c565b611a13848484846121c7565b611a52576040517f08c379a0000000000000000000000000000000000000000000000000000000008152600401611a4990612d6d565b60405180910390fd5b50505050565b606060405180602001604052806000815250905090565b60606000821415611ab7576040518060400160405280600181526020017f30000000000000000000000000000000000000000000000000000000000000008152509050611bcb565b600082905060005b60008214611ae9578080611ad2906132cc565b915050600a82611ae291906130f4565b9150611abf565b60008167ffffffffffffffff811115611b0557611b04613402565b5b6040519080825280601f01601f191660200182016040528015611b375781602001600182028036833780820191505090505b5090505b60008514611bc457600182611b50919061317f565b9150600a85611b5f9190613315565b6030611b6b919061309e565b60f81b818381518110611b8157611b806133d3565b5b60200101907effffffffffffffffffffffffffffffffffffffffffffffffffffffffffffff1916908160001a905350600a85611bbd91906130f4565b9450611b3b565b8093505050505b919050565b60007f01ffc9a7000000000000000000000000000000000000000000000000000000007bffffffffffffffffffffffffffffffffffffffffffffffffffffffff1916827bffffffffffffffffffffffffffffffffffffffffffffffffffffffff1916149050919050565b505050565b600060019054906101000a900460ff1680611c65575060008054906101000a900460ff16155b611ca4576040517f08c379a0000000000000000000000000000000000000000000000000000000008152600401611c9b90612e8d565b60405180910390fd5b60008060019054906101000a900460ff161590508015611cf4576001600060016101000a81548160ff02191690831515021790555060016000806101000a81548160ff0219169083151502179055505b8015611d155760008060016101000a81548160ff0219169083151502179055505b50565b600060019054906101000a900460ff1680611d3e575060008054906101000a900460ff16155b611d7d576040517f08c379a0000000000000000000000000000000000000000000000000000000008152600401611d7490612e8d565b60405180910390fd5b60008060019054906101000a900460ff161590508015611dcd576001600060016101000a81548160ff02191690831515021790555060016000806101000a81548160ff0219169083151502179055505b8015611dee5760008060016101000a81548160ff0219169083151502179055505b50565b600060019054906101000a900460ff1680611e17575060008054906101000a900460ff16155b611e56576040517f08c379a0000000000000000000000000000000000000000000000000000000008152600401611e4d90612e8d565b60405180910390fd5b60008060019054906101000a900460ff161590508015611ea6576001600060016101000a81548160ff02191690831515021790555060016000806101000a81548160ff0219169083151502179055505b8260659080519060200190611ebc929190612371565b508160669080519060200190611ed3929190612371565b508015611ef55760008060016101000a81548160ff0219169083151502179055505b505050565b600060019054906101000a900460ff1680611f20575060008054906101000a900460ff16155b611f5f576040517f08c379a0000000000000000000000000000000000000000000000000000000008152600401611f5690612e8d565b60405180910390fd5b60008060019054906101000a900460ff161590508015611faf576001600060016101000a81548160ff02191690831515021790555060016000806101000a81548160ff0219169083151502179055505b611fbf611fba6112af565b6116b8565b8015611fe05760008060016101000a81548160ff0219169083151502179055505b50565b600073ffffffffffffffffffffffffffffffffffffffff168273ffffffffffffffffffffffffffffffffffffffff161415612053576040517f08c379a000000000000000000000000000000000000000000000000000000000815260040161204a90612ead565b60405180910390fd5b61205c81611243565b1561209c576040517f08c379a000000000000000000000000000000000000000000000000000000000815260040161209390612dad565b60405180910390fd5b6120a860008383611c3a565b6001606860008473ffffffffffffffffffffffffffffffffffffffff1673ffffffffffffffffffffffffffffffffffffffff16815260200190815260200160002060008282546120f8919061309e565b92505081905550816067600083815260200190815260200160002060006101000a81548173ffffffffffffffffffffffffffffffffffffffff021916908373ffffffffffffffffffffffffffffffffffffffff160217905550808273ffffffffffffffffffffffffffffffffffffffff16600073ffffffffffffffffffffffffffffffffffffffff167fddf252ad1be2c89b69c2b068fc378daa952ba7f163c4a11628f55a4df523b3ef60405160405180910390a45050565b6001816000016000828254019250508190555050565b60006121e88473ffffffffffffffffffffffffffffffffffffffff1661235e565b15612351578373ffffffffffffffffffffffffffffffffffffffff1663150b7a026122116112af565b8786866040518563ffffffff1660e01b81526004016122339493929190612cbb565b602060405180830381600087803b15801561224d57600080fd5b505af192505050801561227e57506040513d601f19601f8201168201806040525081019061227b91906128bf565b60015b612301573d80600081146122ae576040519150601f19603f3d011682016040523d82523d6000602084013e6122b3565b606091505b506000815114156122f9576040517f08c379a00000000000000000000000000000000000000000000000000000000081526004016122f090612d6d565b60405180910390fd5b805181602001fd5b63150b7a0260e01b7bffffffffffffffffffffffffffffffffffffffffffffffffffffffff1916817bffffffffffffffffffffffffffffffffffffffffffffffffffffffff191614915050612356565b600190505b949350505050565b600080823b905060008111915050919050565b82805461237d90613269565b90600052602060002090601f01602090048101928261239f57600085556123e6565b82601f106123b857805160ff19168380011785556123e6565b828001600101855582156123e6579182015b828111156123e55782518255916020019190600101906123ca565b5b5090506123f391906123f7565b5090565b5b808211156124105760008160009055506001016123f8565b5090565b600061242761242284612fcd565b612fa8565b9050808382526020820190508285602086028201111561244a57612449613436565b5b60005b8581101561247a57816124608882612508565b84526020840193506020830192505060018101905061244d565b5050509392505050565b600061249761249284612ff9565b612fa8565b9050828152602081018484840111156124b3576124b261343b565b5b6124be848285613227565b509392505050565b60006124d96124d48461302a565b612fa8565b9050828152602081018484840111156124f5576124f461343b565b5b612500848285613227565b509392505050565b60008135905061251781613902565b92915050565b600082601f83011261253257612531613431565b5b8135612542848260208601612414565b91505092915050565b60008135905061255a81613919565b92915050565b60008135905061256f81613930565b92915050565b60008151905061258481613930565b92915050565b600082601f83011261259f5761259e613431565b5b81356125af848260208601612484565b91505092915050565b600082601f8301126125cd576125cc613431565b5b81356125dd8482602086016124c6565b91505092915050565b6000813590506125f581613947565b92915050565b60006020828403121561261157612610613445565b5b600061261f84828501612508565b91505092915050565b6000806040838503121561263f5761263e613445565b5b600061264d85828601612508565b925050602061265e85828601612508565b9150509250929050565b60008060006060848603121561268157612680613445565b5b600061268f86828701612508565b93505060206126a086828701612508565b92505060406126b1868287016125e6565b9150509250925092565b600080600080608085870312156126d5576126d4613445565b5b60006126e387828801612508565b94505060206126f487828801612508565b9350506040612705878288016125e6565b925050606085013567ffffffffffffffff81111561272657612725613440565b5b6127328782880161258a565b91505092959194509250565b6000806040838503121561275557612754613445565b5b600061276385828601612508565b92505060206127748582860161254b565b9150509250929050565b60008060006060848603121561279757612796613445565b5b60006127a586828701612508565b935050602084013567ffffffffffffffff8111156127c6576127c5613440565b5b6127d2868287016125b8565b925050604084013567ffffffffffffffff8111156127f3576127f2613440565b5b6127ff868287016125b8565b9150509250925092565b600080604083850312156128205761281f613445565b5b600061282e85828601612508565b925050602061283f858286016125e6565b9150509250929050565b60006020828403121561285f5761285e613445565b5b600082013567ffffffffffffffff81111561287d5761287c613440565b5b6128898482850161251d565b91505092915050565b6000602082840312156128a8576128a7613445565b5b60006128b684828501612560565b91505092915050565b6000602082840312156128d5576128d4613445565b5b60006128e384828501612575565b91505092915050565b60006020828403121561290257612901613445565b5b6000612910848285016125e6565b91505092915050565b600080604083850312156129305761292f613445565b5b600061293e858286016125e6565b925050602061294f858286016125e6565b9150509250929050565b612962816131b3565b82525050565b612971816131c5565b82525050565b60006129828261305b565b61298c8185613071565b935061299c818560208601613236565b6129a58161344a565b840191505092915050565b60006129bb82613066565b6129c58185613082565b93506129d5818560208601613236565b6129de8161344a565b840191505092915050565b60006129f482613066565b6129fe8185613093565b9350612a0e818560208601613236565b80840191505092915050565b6000612a27603283613082565b9150612a328261345b565b604082019050919050565b6000612a4a602683613082565b9150612a55826134aa565b604082019050919050565b6000612a6d601c83613082565b9150612a78826134f9565b602082019050919050565b6000612a90602483613082565b9150612a9b82613522565b604082019050919050565b6000612ab3601983613082565b9150612abe82613571565b602082019050919050565b6000612ad6602c83613082565b9150612ae18261359a565b604082019050919050565b6000612af9603883613082565b9150612b04826135e9565b604082019050919050565b6000612b1c602a83613082565b9150612b2782613638565b604082019050919050565b6000612b3f602983613082565b9150612b4a82613687565b604082019050919050565b6000612b62602e83613082565b9150612b6d826136d6565b604082019050919050565b6000612b85602083613082565b9150612b9082613725565b602082019050919050565b6000612ba8602c83613082565b9150612bb38261374e565b604082019050919050565b6000612bcb602083613082565b9150612bd68261379d565b602082019050919050565b6000612bee602983613082565b9150612bf9826137c6565b604082019050919050565b6000612c11602f83613082565b9150612c1c82613815565b604082019050919050565b6000612c34602183613082565b9150612c3f82613864565b604082019050919050565b6000612c57603183613082565b9150612c62826138b3565b604082019050919050565b612c768161321d565b82525050565b6000612c8882856129e9565b9150612c9482846129e9565b91508190509392505050565b6000602082019050612cb56000830184612959565b92915050565b6000608082019050612cd06000830187612959565b612cdd6020830186612959565b612cea6040830185612c6d565b8181036060830152612cfc8184612977565b905095945050505050565b6000604082019050612d1c6000830185612959565b612d296020830184612c6d565b9392505050565b6000602082019050612d456000830184612968565b92915050565b60006020820190508181036000830152612d6581846129b0565b905092915050565b60006020820190508181036000830152612d8681612a1a565b9050919050565b60006020820190508181036000830152612da681612a3d565b9050919050565b60006020820190508181036000830152612dc681612a60565b9050919050565b60006020820190508181036000830152612de681612a83565b9050919050565b60006020820190508181036000830152612e0681612aa6565b9050919050565b60006020820190508181036000830152612e2681612ac9565b9050919050565b60006020820190508181036000830152612e4681612aec565b9050919050565b60006020820190508181036000830152612e6681612b0f565b9050919050565b60006020820190508181036000830152612e8681612b32565b9050919050565b60006020820190508181036000830152612ea681612b55565b9050919050565b60006020820190508181036000830152612ec681612b78565b9050919050565b60006020820190508181036000830152612ee681612b9b565b9050919050565b60006020820190508181036000830152612f0681612bbe565b9050919050565b60006020820190508181036000830152612f2681612be1565b9050919050565b60006020820190508181036000830152612f4681612c04565b9050919050565b60006020820190508181036000830152612f6681612c27565b9050919050565b60006020820190508181036000830152612f8681612c4a565b9050919050565b6000602082019050612fa26000830184612c6d565b92915050565b6000612fb2612fc3565b9050612fbe828261329b565b919050565b6000604051905090565b600067ffffffffffffffff821115612fe857612fe7613402565b5b602082029050602081019050919050565b600067ffffffffffffffff82111561301457613013613402565b5b61301d8261344a565b9050602081019050919050565b600067ffffffffffffffff82111561304557613044613402565b5b61304e8261344a565b9050602081019050919050565b600081519050919050565b600081519050919050565b600082825260208201905092915050565b600082825260208201905092915050565b600081905092915050565b60006130a98261321d565b91506130b48361321d565b9250827fffffffffffffffffffffffffffffffffffffffffffffffffffffffffffffffff038211156130e9576130e8613346565b5b828201905092915050565b60006130ff8261321d565b915061310a8361321d565b92508261311a57613119613375565b5b828204905092915050565b60006131308261321d565b915061313b8361321d565b9250817fffffffffffffffffffffffffffffffffffffffffffffffffffffffffffffffff048311821515161561317457613173613346565b5b828202905092915050565b600061318a8261321d565b91506131958361321d565b9250828210156131a8576131a7613346565b5b828203905092915050565b60006131be826131fd565b9050919050565b60008115159050919050565b60007fffffffff0000000000000000000000000000000000000000000000000000000082169050919050565b600073ffffffffffffffffffffffffffffffffffffffff82169050919050565b6000819050919050565b82818337600083830152505050565b60005b83811015613254578082015181840152602081019050613239565b83811115613263576000848401525b50505050565b6000600282049050600182168061328157607f821691505b60208210811415613295576132946133a4565b5b50919050565b6132a48261344a565b810181811067ffffffffffffffff821117156132c3576132c2613402565b5b80604052505050565b60006132d78261321d565b91507fffffffffffffffffffffffffffffffffffffffffffffffffffffffffffffffff82141561330a57613309613346565b5b600182019050919050565b60006133208261321d565b915061332b8361321d565b92508261333b5761333a613375565b5b828206905092915050565b7f4e487b7100000000000000000000000000000000000000000000000000000000600052601160045260246000fd5b7f4e487b7100000000000000000000000000000000000000000000000000000000600052601260045260246000fd5b7f4e487b7100000000000000000000000000000000000000000000000000000000600052602260045260246000fd5b7f4e487b7100000000000000000000000000000000000000000000000000000000600052603260045260246000fd5b7f4e487b7100000000000000000000000000000000000000000000000000000000600052604160045260246000fd5b600080fd5b600080fd5b600080fd5b600080fd5b600080fd5b6000601f19601f8301169050919050565b7f4552433732313a207472616e7366657220746f206e6f6e20455243373231526560008201527f63656976657220696d706c656d656e7465720000000000000000000000000000602082015250565b7f4f776e61626c653a206e6577206f776e657220697320746865207a65726f206160008201527f6464726573730000000000000000000000000000000000000000000000000000602082015250565b7f4552433732313a20746f6b656e20616c7265616479206d696e74656400000000600082015250565b7f4552433732313a207472616e7366657220746f20746865207a65726f2061646460008201527f7265737300000000000000000000000000000000000000000000000000000000602082015250565b7f4552433732313a20617070726f766520746f2063616c6c657200000000000000600082015250565b7f4552433732313a206f70657261746f7220717565727920666f72206e6f6e657860008201527f697374656e7420746f6b656e0000000000000000000000000000000000000000602082015250565b7f4552433732313a20617070726f76652063616c6c6572206973206e6f74206f7760008201527f6e6572206e6f7220617070726f76656420666f7220616c6c0000000000000000602082015250565b7f4552433732313a2062616c616e636520717565727920666f7220746865207a6560008201527f726f206164647265737300000000000000000000000000000000000000000000602082015250565b7f4552433732313a206f776e657220717565727920666f72206e6f6e657869737460008201527f656e7420746f6b656e0000000000000000000000000000000000000000000000602082015250565b7f496e697469616c697a61626c653a20636f6e747261637420697320616c72656160008201527f647920696e697469616c697a6564000000000000000000000000000000000000602082015250565b7f4552433732313a206d696e7420746f20746865207a65726f2061646472657373600082015250565b7f4552433732313a20617070726f76656420717565727920666f72206e6f6e657860008201527f697374656e7420746f6b656e0000000000000000000000000000000000000000602082015250565b7f4f776e61626c653a2063616c6c6572206973206e6f7420746865206f776e6572600082015250565b7f4552433732313a207472616e73666572206f6620746f6b656e2074686174206960008201527f73206e6f74206f776e0000000000000000000000000000000000000000000000602082015250565b7f4552433732314d657461646174613a2055524920717565727920666f72206e6f60008201527f6e6578697374656e7420746f6b656e0000000000000000000000000000000000602082015250565b7f4552433732313a20617070726f76616c20746f2063757272656e74206f776e6560008201527f7200000000000000000000000000000000000000000000000000000000000000602082015250565b7f4552433732313a207472616e736665722063616c6c6572206973206e6f74206f60008201527f776e6572206e6f7220617070726f766564000000000000000000000000000000602082015250565b61390b816131b3565b811461391657600080fd5b50565b613922816131c5565b811461392d57600080fd5b50565b613939816131d1565b811461394457600080fd5b50565b6139508161321d565b811461395b57600080fd5b5056fea264697066735822122042d491796d7cf5ffa96d0d80ee025801d2b6585d2b08a131bfcae2eae718439d64736f6c63430008060033",
  "devdoc": {
    "author": "michael gingras Repository: https://github.com/mcgingras/nftapes",
    "details": "This allows you to create \"burned\" (copied) tapes of an original tape.",
    "kind": "dev",
    "methods": {
      "approve(address,uint256)": {
        "details": "See {IERC721-approve}."
      },
      "balanceOf(address)": {
        "details": "See {IERC721-balanceOf}."
      },
      "getApproved(uint256)": {
        "details": "See {IERC721-getApproved}."
      },
      "isApprovedForAll(address,address)": {
        "details": "See {IERC721-isApprovedForAll}."
      },
      "name()": {
        "details": "See {IERC721Metadata-name}."
      },
      "owner()": {
        "details": "Returns the address of the current owner."
      },
      "ownerOf(uint256)": {
        "details": "See {IERC721-ownerOf}."
      },
      "renounceOwnership()": {
        "details": "Leaves the contract without owner. It will not be possible to call `onlyOwner` functions anymore. Can only be called by the current owner. NOTE: Renouncing ownership will leave the contract without an owner, thereby removing any functionality that is only available to the owner."
      },
      "royaltyInfo(uint256,uint256)": {
        "details": "The owner of this contract should always be the owner of the parent mixtape need to make sure that transfers as well. (todo: write some test for that)"
      },
      "safeTransferFrom(address,address,uint256)": {
        "details": "See {IERC721-safeTransferFrom}."
      },
      "safeTransferFrom(address,address,uint256,bytes)": {
        "details": "See {IERC721-safeTransferFrom}."
      },
      "setApprovalForAll(address,bool)": {
        "details": "See {IERC721-setApprovalForAll}."
      },
      "supportsInterface(bytes4)": {
        "details": "pulling this direct from OpenZepplin"
      },
      "symbol()": {
        "details": "See {IERC721Metadata-symbol}."
      },
      "tokenURI(uint256)": {
        "details": "See {IERC721Metadata-tokenURI}."
      },
      "transferFrom(address,address,uint256)": {
        "details": "See {IERC721-transferFrom}."
      },
      "transferOwnership(address)": {
        "details": "Transfers ownership of the contract to a new account (`newOwner`). Can only be called by the current owner."
      }
    },
    "version": 1
  },
  "userdoc": {
    "kind": "user",
    "methods": {
      "royaltyInfo(uint256,uint256)": {
        "notice": "returns how much and to whom royalty info should be paid out to"
      },
      "supportsInterface(bytes4)": {
        "notice": "I'm assuming this is so any dapps that consume this contract can tell what sort of interfaces it supports."
      }
    },
    "notice": "This is a smart contract for handling \"burned\" mxtapes.",
    "version": 1
  },
  "storageLayout": {
    "storage": [
      {
        "astId": 152,
        "contract": "contracts/SubtapeFactory.sol:SubtapeFactory",
        "label": "_initialized",
        "offset": 0,
        "slot": "0",
        "type": "t_bool"
      },
      {
        "astId": 155,
        "contract": "contracts/SubtapeFactory.sol:SubtapeFactory",
        "label": "_initializing",
        "offset": 1,
        "slot": "0",
        "type": "t_bool"
      },
      {
        "astId": 1487,
        "contract": "contracts/SubtapeFactory.sol:SubtapeFactory",
        "label": "__gap",
        "offset": 0,
        "slot": "1",
        "type": "t_array(t_uint256)50_storage"
      },
      {
        "astId": 1810,
        "contract": "contracts/SubtapeFactory.sol:SubtapeFactory",
        "label": "__gap",
        "offset": 0,
        "slot": "51",
        "type": "t_array(t_uint256)50_storage"
      },
      {
        "astId": 221,
        "contract": "contracts/SubtapeFactory.sol:SubtapeFactory",
        "label": "_name",
        "offset": 0,
        "slot": "101",
        "type": "t_string_storage"
      },
      {
        "astId": 223,
        "contract": "contracts/SubtapeFactory.sol:SubtapeFactory",
        "label": "_symbol",
        "offset": 0,
        "slot": "102",
        "type": "t_string_storage"
      },
      {
        "astId": 227,
        "contract": "contracts/SubtapeFactory.sol:SubtapeFactory",
        "label": "_owners",
        "offset": 0,
        "slot": "103",
        "type": "t_mapping(t_uint256,t_address)"
      },
      {
        "astId": 231,
        "contract": "contracts/SubtapeFactory.sol:SubtapeFactory",
        "label": "_balances",
        "offset": 0,
        "slot": "104",
        "type": "t_mapping(t_address,t_uint256)"
      },
      {
        "astId": 235,
        "contract": "contracts/SubtapeFactory.sol:SubtapeFactory",
        "label": "_tokenApprovals",
        "offset": 0,
        "slot": "105",
        "type": "t_mapping(t_uint256,t_address)"
      },
      {
        "astId": 241,
        "contract": "contracts/SubtapeFactory.sol:SubtapeFactory",
        "label": "_operatorApprovals",
        "offset": 0,
        "slot": "106",
        "type": "t_mapping(t_address,t_mapping(t_address,t_bool))"
      },
      {
        "astId": 1037,
        "contract": "contracts/SubtapeFactory.sol:SubtapeFactory",
        "label": "__gap",
        "offset": 0,
        "slot": "107",
        "type": "t_array(t_uint256)44_storage"
      },
      {
        "astId": 10,
        "contract": "contracts/SubtapeFactory.sol:SubtapeFactory",
        "label": "_owner",
        "offset": 0,
        "slot": "151",
        "type": "t_address"
      },
      {
        "astId": 123,
        "contract": "contracts/SubtapeFactory.sol:SubtapeFactory",
        "label": "__gap",
        "offset": 0,
        "slot": "152",
        "type": "t_array(t_uint256)49_storage"
      },
      {
        "astId": 4552,
        "contract": "contracts/SubtapeFactory.sol:SubtapeFactory",
        "label": "mintedCount",
        "offset": 0,
        "slot": "201",
        "type": "t_struct(Counter)1494_storage"
      }
    ],
    "types": {
      "t_address": {
        "encoding": "inplace",
        "label": "address",
        "numberOfBytes": "20"
      },
      "t_array(t_uint256)44_storage": {
        "base": "t_uint256",
        "encoding": "inplace",
        "label": "uint256[44]",
        "numberOfBytes": "1408"
      },
      "t_array(t_uint256)49_storage": {
        "base": "t_uint256",
        "encoding": "inplace",
        "label": "uint256[49]",
        "numberOfBytes": "1568"
      },
      "t_array(t_uint256)50_storage": {
        "base": "t_uint256",
        "encoding": "inplace",
        "label": "uint256[50]",
        "numberOfBytes": "1600"
      },
      "t_bool": {
        "encoding": "inplace",
        "label": "bool",
        "numberOfBytes": "1"
      },
      "t_mapping(t_address,t_bool)": {
        "encoding": "mapping",
        "key": "t_address",
        "label": "mapping(address => bool)",
        "numberOfBytes": "32",
        "value": "t_bool"
      },
      "t_mapping(t_address,t_mapping(t_address,t_bool))": {
        "encoding": "mapping",
        "key": "t_address",
        "label": "mapping(address => mapping(address => bool))",
        "numberOfBytes": "32",
        "value": "t_mapping(t_address,t_bool)"
      },
      "t_mapping(t_address,t_uint256)": {
        "encoding": "mapping",
        "key": "t_address",
        "label": "mapping(address => uint256)",
        "numberOfBytes": "32",
        "value": "t_uint256"
      },
      "t_mapping(t_uint256,t_address)": {
        "encoding": "mapping",
        "key": "t_uint256",
        "label": "mapping(uint256 => address)",
        "numberOfBytes": "32",
        "value": "t_address"
      },
      "t_string_storage": {
        "encoding": "bytes",
        "label": "string",
        "numberOfBytes": "32"
      },
      "t_struct(Counter)1494_storage": {
        "encoding": "inplace",
        "label": "struct CountersUpgradeable.Counter",
        "members": [
          {
            "astId": 1493,
            "contract": "contracts/SubtapeFactory.sol:SubtapeFactory",
            "label": "_value",
            "offset": 0,
            "slot": "0",
            "type": "t_uint256"
          }
        ],
        "numberOfBytes": "32"
      },
      "t_uint256": {
        "encoding": "inplace",
        "label": "uint256",
        "numberOfBytes": "32"
      }
    }
  }
}